:020000040800F2
:10000000D8AD0120497D0008ED060008EF06000884
:10001000F1060008F3060008F506000800000000DD
:100020000000000000000000000000005B7D0008F0
:10003000F7060008000000002DA10108B1A9000882
:10004000637D0008637D0008637D0008637D000810
:10005000637D0008637D0008637D0008637D000800
:10006000637D0008637D0008637D0008637D0008F0
:10007000637D0008637D0008637D0008637D0008E0
:10008000637D0008637D0008637D0008637D0008D0
:10009000637D0008637D0008637D0008637D0008C0
:1000A000637D0008637D0008637D0008637D0008B0
:1000B000637D0008150A0008637D0008637D000861
:1000C000637D0008637D0008637D0008637D000890
:1000D000637D000843AB0008637D0008637D000872
:1000E000637D0008637D0008637D0008637D000870
:1000F000637D0008637D0008637D0008637D000860
:10010000637D00082B770008637D0008637D00088D
:10011000637D0008637D0008637D0008637D00083F
:10012000637D0008637D0008637D0008637D00082F
:10013000637D000813520008637D0008637D00089A
:10014000637D0008637D0008637D0008637D00080F
:10015000637D0008637D0008637D0008637D0008FF
:10016000637D0008637D0008637D0008637D0008EF
:10017000637D0008637D0008637D0008637D0008DF
:10018000637D0008637D000800F002F800F080F84D
:100190000AA090E8000C82448344AAF10107DA45E2
:1001A00001D100F075F8AFF2090EBAE80F0013F0B4
:1001B000010F18BFFB1A43F0010318477CD102005E
:1001C0009CD102000A444FF0000C10F8013B13F0E0
:1001D000070408BF10F8014B1D1108BF10F8015BA0
:1001E000641E05D010F8016B641E01F8016BF9D193
:1001F00013F0080F1EBF10F8014BAD1C0C1B09D1EA
:100200006D1E58BF01F801CBFAD505E014F8016B5B
:1002100001F8016B6D1EF9D59142D6D370470000ED
:100220000023002400250026103A28BF78C1FBD8FF
:10023000520728BF30C148BF0B607047662924F0C1
:100240000782672924F00482692920F01387642932
:1002500020F01087782920F04987732921F039850B
:10026000002070471FB524F0E6F921F048F821F08E
:1002700019FA04000020002123F0DCFB401C606020
:100280000020002123F0ECFBE0601FBD10B510BD85
:1002900022F084FB1146FFF7E5FF00F0FBF822F0A7
:1002A000E5FD03B4FFF7F2FF03BC0AF0EBFB00002F
:1002B00030BF72B6704762B6704780F308887047E7
:1002C0000B49D1F800C04A685CF8043B1068184438
:1002D00042F8040B8C4528BFA1F1DC0C8A4228BFF0
:1002E000A1F1DC02C1F800C04A6020F00040704774
:1002F0006C9B0120F0B5AE4C8BB01026677B217B48
:10030000A27AE37ACDE9001702AD022831D0A9A183
:10031000284620F049FECDE900651023D222822133
:100320001E2004F07EFE617D207DCDE90001E37C8E
:10033000A27CA6A102A820F037FECDE9006510231B
:10034000D22296211E2004F06CFE617C207CCDE937
:100350000001E37BA27BA3A102A820F025FECDE94A
:1003600000651023D222AA211E2004F05AFE0BB0F1
:10037000F0BDA2A1284620F017FECDE900651023AC
:10038000D22282211E2004F04CFE617D207DCDE929
:100390000001E37CA27C9FA102A820F005FECDE92C
:1003A00000651023D22296211E2004F03AFE617CC3
:1003B000207CCDE90001E37BA27B9CA1CCE74FF43C
:1003C000FA74002223461146104619F098FAF8E70D
:1003D00010B51CF01AFB01469AA020F0D9FDBDE82B
:1003E00010401AF005B8724C4FF4FA75A07D28B190
:1003F000A07DFFF77FFFFF2019F0ABF900222B460D
:100400001146104619F07BFAF0E7944C4FF4FA7558
:10041000D4F8A40248B10020C4F8A40200222B465C
:100420001146104619F06BFAF2E70120F4E710B517
:1004300017F05AFD19F052FE04460AF0F9FC0021AB
:100440004FF4FA730222084619F059FA0923844A34
:100450000021AFF2490018F05EFF0823814A002115
:10046000AFF27D0018F057FF0B237F4A0021AFF257
:100470009F0018F050FF0C237C4A0021AFF2C1000E
:1004800018F049FFFF2019F064F92046BDE810403C
:1004900019F028BE7CB5A8200AF098FA4FF4A060A5
:1004A00007F072FC4FF4E1300AF0F5FA00F04CFA74
:1004B00000F0E0F901F001F805F05EF905F093FCB9
:1004C00004F052FF002019F07CFE012019F079FEA3
:1004D000022019F076FE1DF0F7FE654C012265A1A1
:1004E00020681FF065F8012263A160681FF060F8C2
:1004F00007F0C7FB61494FF478401024088060A0E2
:10050000CDE900401E211423C822084604F089FDCD
:1005100060A0CDE900401423C82232211E2004F03F
:1005200080FD60A0CDE900401423C82246211E2092
:1005300004F077FD5FA0CDE900401423C8225A21C2
:100540001E2004F06EFD17F0E2FB4FF4FA754FF633
:10055000FF7615E05AA0CDE900401423C8226E2191
:100560001E2004F05EFD28460AF06AFA9623E62271
:100570006E211E20009604F038FB28460AF060FA2F
:100580000AF07EFB0028E5D152A0CDE900401423FB
:10059000C8226E211E2004F044FD0A23524A002185
:1005A000AFF2751018F0B7FE17F08BFC00207CBD81
:1005B000202E00205374617469632049503A2564E9
:1005C0002E25642E25642E2564000000537461746A
:1005D00069632047573A25642E25642E25642E250D
:1005E000640000004E4554204D41534B203A256491
:1005F0002E25642E25642E256400000044484350B7
:10060000204950203A25642E25642E25642E256429
:100610000000000044484350204757203A25642EEC
:1006200025642E25642E2564000000004E455420CC
:100630004D41534B3A25642E25642E25642E2564A6
:10064000000000000D0A634A534F4E205665727336
:10065000696F6E3A2025730D0A0000000080424247
:10066000540600205405002054180020541A00207D
:1006700004020020303A0000313A00001600002049
:100680004578706C6F7265722053544D3332463426
:10069000000000004C5749502B55434F53205465E0
:1006A0007374000041544F4D40414C49454E5445F0
:1006B0004B000000323031342F392F310000000060
:1006C0004C77697020496E6974206661696C656455
:1006D000210000004C77697020496E6974205375C1
:1006E0006363657373210000540800207047FEE7C0
:1006F000FEE7FEE7FEE770470CB500205449019085
:1007000000900A6842F480320A604FF4A0430A68FD
:1007100002F400320092019A521C0192009A12B91E
:10072000019A9A42F3D10A68920334D501200090CD
:1007300047484030026842F08052026045480268F3
:1007400042F4404202604248083002680260026897
:1007500042F400420260026842F4A0520260031FA9
:100760003D4A1A600A6842F080720A600A68920183
:10077000FCD53A4A40F205711160016821F003018D
:100780000160016841F0020101600168C1F381016B
:100790000229FAD10CBD00900CBD314810B501689A
:1007A00041F4700101602A48016841F001010160D3
:1007B000274A00210832116002682A4B1A40026061
:1007C000031D294A1A60026822F480220260204830
:1007D0000C300160FFF790FF21494FF00060803935
:1007E000086010BD70B51A4C083420681F4A10F01C
:1007F0000C011F4804D05510042903D0082903D048
:1008000002601BE0056019E01149091D0B68C3F384
:1008100080560B6803F03F0316B1B5FBF3F201E01D
:10082000B2FBF3F20B680968C3F388135A43C1F3B0
:100830000141491C4900B2FBF1F1016021680C4AF9
:10084000C1F30311121D515C0268CA40026070BD01
:10085000003802400070004008544007003C02404D
:1008600088ED00E0FFFFF6FE103000240024F400C5
:10087000000000201CB50121112007F062FD1C20A2
:10088000009000208DF8040001248DF8074069468F
:10089000284807F03DFB02208DF8070000946946C8
:1008A000254807F035FB1CBD70B5244D244E254C62
:1008B000012108B1297001E0287860B1D4F8100254
:1008C00070B1D4F80C0258B1D4F8080240B1D6F88F
:1008D0000002012804D0D4F8100201281BD026E021
:1008E0000A200AF0ADF800202870D4F8100250B1A8
:1008F000D4F80C0248B1D4F8080240B1D6F800028E
:10090000012806D013E0012070BD022070BD032035
:1009100070BD042070BDD4F80C02012807D1D4F8B2
:100920000802012803D1D6F8000200B9297000207E
:1009300070BD0000001002400000024014000020C2
:1009400000004042000042427CB50121202007F017
:10095000F8FC01208DF8040000208DF806008DF8C9
:1009600007000320134D4FF4C0648DF80500009478
:100970006946284607F0CCFA2146284607F042FB94
:100980007CBD10B500230C4A012438B1012804D1E4
:1009900069B1012901D1C2F8A83210BD21B10129E4
:1009A000FBD1C2F8A43210BDC2F8A44210BDC2F8F7
:1009B000A84210BD00140240008042427FB50D469F
:1009C00004460121022007F0DAFC00200194ADF872
:1009D0000050164CADF80200ADF8080069462046FC
:1009E00007F052FE01221146204608F0D6F90121F7
:1009F000204607F0C1FE1D208DF80C0001208DF867
:100A00000D0003218DF80E108DF80F0003A807F0DC
:100A1000C0F97FBD10B5054C0121204608F0D1F981
:100A20002046BDE81040012108F0D7B9000400407D
:100A300001B5BDF80000ADF80000BDF800004FF0B2
:100A4000D841A1F87E0008BD01B5BDF80000ADF8A1
:100A50000000BDF800004FF0D841A1F8800008BDAB
:100A600008B54FF0D840B0F88000ADF80000BDF8F0
:100A7000000008BD03B5BDF800104FF0D84020F8C5
:100A80007E1FBDF8041041800CBD01B5BDF800000B
:100A9000FFF7CEFF052009F0B4FFBDE80840DFE70F
:100AA000FE484FF0D8410089A1F87E0070474FF012
:100AB000D841A1F880007047C0F34511C20AC002B6
:100AC00000EB4110104480B27047401EC0B2FCD20F
:100AD0007047F0B5F14E02463346B0880C464FEAF7
:100AE000112C150A5B89A0F5134141391AD0A0F5E4
:100AF000A641103916D0B646B1793688A0F5D04750
:100B0000B61A761E043F18D07746A0F5C85EBEF12F
:100B1000630E27D0A0F5A04EBEF5A26E5CD00129D1
:100B200075D075E01846FFF783FF2846FFF78CFF66
:100B3000D0B2FFF789FFB0890DE07546012900D1D9
:100B4000B2B21846FFF774FF100AFFF77DFFD0B26C
:100B5000FFF77AFFA889FFF76BFF6046FFF774FF86
:100B6000E0B227E049B31846FFF762FF2846FFF7D7
:100B70006BFFD0B2FFF768FF3888401EC0F30F202C
:100B8000FFF762FF3878401E5FFA80F0FFF75CFFE6
:100B9000B889FFF74DFF6046FFF756FFE0B2FFF759
:100BA00053FF7888401EC0F30F20FFF74DFFB87841
:100BB000401EC0B2BDE8F04046E7B2B21846FFF7AB
:100BC00037FF0020FFF740FF0020FFF73DFF100A2E
:100BD000FFF73AFFD0B2D9E71846FFF729FF2846BA
:100BE000FFF732FF7889401C80B2FFF721FFD0B2B7
:100BF000FFF72AFFB889FFF71BFF6046FFF724FFC6
:100C0000B889401C80B2FFF713FFA9E7FFE7B2B233
:100C100011461846FFF72EFFB8892146BDE8F0407F
:100C200028E7FEB50022ADF80020ADF80420ADF8AD
:100C300008209A4C2288824202D962888A4201D8CE
:100C40000020FEBDFFF745FFA08849F2413241F682
:100C5000631745F2103545F21056904207D0A0F5C3
:100C6000D041043903D0A84201D0B84201D12E208E
:100C700005E0B04202D14FF4385000E02220FFF7E7
:100C8000D7FEA088A0F51341203903D10120401ED2
:100C9000C0B2FCD2FFF7E4FEADF80000A088B84275
:100CA0004CD00120401EC0B2FCD2FFF7D9FEADF8F7
:100CB0000000A088904203D0A84201D0B04214D1D5
:100CC0000120401EC0B2FCD2FFF7CAFEADF80800FA
:100CD000BDF80000C0B2ADF80400BDF804004FF646
:100CE000FF7101EA0020ADF80400A088A0F51341CF
:100CF000253923D0A0F58A4135391FD0A0F58A4186
:100D000031391BD0A0F53541053917D0A0F5454143
:100D1000053913D0904203D0A84201D0B04210D17F
:100D2000BDF80000BDF804106FF30A00890A40EA1C
:100D30004110BDF8081040EAD120FEBDBDF800000A
:100D4000FEBDBDF80000BDE8FE40B5E65348808812
:100D5000A0F51341413913D0A0F5D04104390FD08B
:100D6000A0F5A64110390BD0A0F5C851633907D0C2
:100D7000A0F5AA41103905D040F27311072079E699
:100D8000292001E04FF4245052E644488088A0F521
:100D90001341413912D0A0F5D04104390ED0A0F54D
:100DA000A64110390AD0A0F5C851633906D0A0F584
:100DB000AA41103904D0002107205BE6282001E079
:100DC0004FF4205034E6F0B5344D00242946AB7979
:100DD000898846F6040241F66317012B01D02BB136
:100DE0001DE091421BD0B94202D118E0B94216D1A0
:100DF000082814D2DFE800F00406080A0C0E1012CE
:100E000006200CE007200AE0042008E0052006E0A8
:100E1000012004E0002002E0032000E00220A1F510
:100E2000134C45F2103345F21056BCF1410C07D07B
:100E3000914205D0994203D0B14201D0B9427CD150
:100E4000082812D2DFE800F0110406080A0C0E1080
:100E500080240AE0402408E0C02406E0202404E0C6
:100E6000602402E0A02400E0E024B14202D14FF46B
:100E7000585000E03620994205D0B14203D0B94223
:100E800001D044F00804914201D144F0020421460B
:100E9000FFF7F0FDA988B9420DD001E0581A0020F3
:100EA000A00628886A8802D5904202D303E09042C7
:100EB00001D92A8068806889B14242D1FFF7B8FD24
:100EC0000020FFF7C1FD6889401C80B2FFF7B0FD2C
:100ED0000020FFF7B9FD6889801C80B2FFF7A8FDEC
:100EE0002888401EC0F30F20FFF7AEFD6889C01CA4
:100EF00080B2FFF79DFD2878401EC0B2FFF7A4FD29
:100F0000A889FFF795FD0020FFF79EFDA889401CEA
:100F100080B2FFF78DFD0020FFF796FDA889801CA9
:100F200080B2FFF785FD6888401EC0F30F20FFF7F1
:100F30008BFDA889C01C80B200E02AE0FFF778FD95
:100F400021E0FFF775FD0020FFF77EFD0020FFF791
:100F50007BFD2888401EC0F30F20FFF775FD287821
:100F6000401EC0B2FFF770FDA889FFF761FD0020A9
:100F7000FFF76AFD0020FFF767FD6888401EC0F399
:100F80000F20FFF761FDA878BDE8F040401EC0B219
:100F90005AE5082812D2DFE800F0040608110A0C0E
:100FA0000E1030240AE0102408E0202406E0382443
:100FB00004E0282402E0182400E0082444F48051CE
:100FC000BDE8F040032055E500B5FFF782FDFFF7CF
:100FD00067FDFE484FF0D8410088A1F8800000BDB1
:100FE0002DE9F041FA4C90460246A08823460D4672
:100FF0004FEA112C160A5B89A0F51341413917D02D
:10100000A0F5A641103913D0A0F5AA41103914D08B
:101010002646A0F5C857B1793688B61A761E633FC2
:1010200025D0A0F5D047043F3DD0012951D051E053
:101030001846FFF7FDFC30463CE01846FFF7F8FC89
:101040003046FFF701FD6089401C80B2FFF7F0FCDD
:10105000D0B2FFF7F9FCA089FFF7EAFC6046FFF782
:10106000F3FCA089401C80B2FFF7E2FC2DE001B93F
:10107000B2B21846FFF7DCFC160A3046FFF7E4FC74
:10108000D0B2FFF7E1FC3046FFF7DEFCD0B2FFF74D
:10109000DBFCA089FFF7CCFC6046FFF7D5FCE8B28B
:1010A000FFF7D2FC0EE0012900D1B2B21846FFF7DB
:1010B000BFFC100AFFF7C8FCD0B2FFF7C5FCA0893F
:1010C000FFF7B6FC6046FFF7BFFCE8B2FFF7BCFCD9
:1010D00008E0B2B211461846FFF7CCFCA0892946B9
:1010E000FFF7C8FC4FF0D8402189A0F87E10A0F887
:1010F0008080BDE8F08110B50246BE20FFF798FC65
:101100000520FFF7A1FC104622F0B6FF9FEDB11BB2
:1011100053EC112B23F000F822F06AFF80B2FFF7A6
:1011200093FC0120FFF790FCFF20FFF78DFC0020CF
:10113000FFF78AFCBDE81040002085E42DE9F04F60
:10114000A3492A242B25898845F2105A4FF4305B95
:101150004FF4285E4FF448764FF0F00C49F24139D5
:101160004FF4A07345F210374FF4F07280B19848F5
:101170004FF00108494580F806800380A0F802C0BE
:1011800001D0B9423ED12C2606814481858157E0A9
:101190008F484FF00008494580F80680A0F800C04D
:1011A000438006D0A1F5D04CBCF1040C01D0B9426B
:1011B0000CD12C2606814481A1F5D0448581043CC4
:1011C00001D0B94244D10380428041E0514507D16A
:1011D000A0F808B0A0F80AE04FF42C5181810EE08D
:1011E000A1F5C853633B06D0222101812021418112
:1011F000212181812CE02C21018145818481028083
:10120000468025E0A1F5D04CBCF1040C09D0514535
:101210000BD1A0F808B0A0F80AE04FF42C54848158
:1012200020E02C260681458109E0A1F5C85CBCF1CF
:10123000630C11D022240481212444812024848140
:10124000A1F5D044043C01D0B94201D102804380D1
:10125000BDE8F04F0020B6E54FF02C0CA0F808C018
:101260004481858106804280EAE72DE9FE4F0446ED
:10127000104401EB0308DFF85891401EA8F1010863
:1012800087B2B9F80400C8F3072302930B0A00934E
:10129000A3185B1EC3F3072301934B460D465B89DE
:1012A000A0F513411FFA88F64FEA142B413912D0EA
:1012B000A0F5A04CBCF5447C0DD0A0F5D04CBCF101
:1012C000040C08D099F806A041F6631CBAF1010F8E
:1012D0001ED160451CD14A461846FFF7A9FB584667
:1012E000FFF7B2FBE0B2FFF7AFFB0198FFF7ACFBF3
:1012F000F8B2FFF7A9FB9089FFF79AFB0098FFF778
:10130000A3FBE8B2FFF7A0FB0298FFF79DFB95E077
:101310002F496045098825D1881A001B84B24E46A2
:101320001FFA88F71846FFF783FB200AFFF78CFBAC
:10133000E0B2FFF789FB2244521EC2F30F20FFF7F1
:1013400083FBD0B2FFF780FBB089FFF771FB0098F9
:10135000FFF77AFBE8B2FFF777FB380AFFF774FB79
:10136000F8B26CE0A0F5A04C4A46BCF5A26C23D0C4
:10137000BAF1010F67D0BC4620462F4650220146E5
:101380004FF0510A4FF052094FF053081046FFF743
:1013900071FB61465046FFF76DFB39464846FFF743
:1013A00069FB31464046FFF765FB03B029462046FE
:1013B000BDE8F04FFFF78DBB1846FFF739FB5846E5
:1013C000FFF742FB5089401C80B207E01600002066
:1013D000581A00206666666666660440FFF728FBBA
:1013E000E0B2FFF731FB5089801C80B2FFF720FB91
:1013F0000198FFF729FB5089C01C80B2FFF718FB4A
:10140000F8B2FFF721FB9089FFF712FB0098FFF776
:101410001BFB9089401C80B2FFF70AFBE8B2FFF784
:1014200013FB9089801C80B2FFF702FB0298FFF744
:101430000BFB9089C01C80B2FFF7FAFAF0B2BDE84E
:10144000FE4FFFF701BBCA1B521E091BB446491EC3
:10145000284697B28EB291E72DE9F043FF4C8146C2
:101460000025208866884643A088A0F5D04104392D
:1014700002D1A079012808D000210846FFF729FBF6
:10148000FFF70EFB4FF0D84013E00020A0712A2791
:1014900067814FF02B08A4F80C800146FFF719FB79
:1014A0000120A071A4F80A80A781E9E7A0F8809044
:1014B0006D1CB542FAD3BDE8F0832DE9F04FA1B021
:1014C000002401217A20119406F03BFF01210846F7
:1014D00006F04BFF01208DF804008DF80640022035
:1014E0008DF8050001204FF4004B8DF80700CDF872
:1014F00000B06946DA4806F00BFD4CF233700090FC
:1015000002208DF804008DF8064003208DF80500B8
:1015100001208DF807006946D24806F0F9FC4FF625
:101520008070009002208DF804008DF806400320A2
:101530008DF805000120CC4D8DF80700694628463E
:1015400006F0E6FCA814009002208DF804008DF847
:10155000064003208DF805000120C44E8DF80700D9
:101560006946304606F0D4FCA814009002208DF89D
:1015700004008DF8064003208DF805000120BC4FC3
:101580008DF807006946384606F0C2FC0C2200219F
:10159000B44806F046FD0C220121B24806F041FD98
:1015A0000C220421AF4806F03CFD0C220521AD4879
:1015B00006F037FD0C220821AA4806F032FD0C2265
:1015C0000921A84806F02DFD0C220A21A54806F0A5
:1015D00028FD0C220E21A34806F023FD0C220F212A
:1015E000A04806F01EFD0C220721284606F019FD32
:1015F0000C220821284606F014FD0C220921284659
:1016000006F00FFD0C220A21284606F00AFD0C22E6
:101610000B21284606F005FD0C221146284606F04F
:1016200000FD0C220D21284606F0FBFC0C220E21A9
:10163000284606F0F6FC0C220F21284606F0F1FCA5
:101640000C221146304606F0ECFC0C2211463846BE
:1016500006F0E7FC0F20CDE912043C20CDE914048C
:101660000920CDE9184016940820CDE91A401794B6
:101670001C940620CDE902041D941E941020CDE98F
:1016800004401F9406940002CDE90A400894079490
:101690008000CDE90C40099412A8CDE90E4019A8AC
:1016A000109002A808F06CFB0121062008F0E1FB75
:1016B000322009F0C5F901210020FFF7DBF93220C3
:1016C00009F0BEF90020FFF7E0F9644A4FF0204925
:1016D0004FF6FF7A908049F2413545F2103645F2D7
:1016E000105441F6631746F60408FF2804D350450A
:1016F00002D0B0F5134F75D1D320FFF799F9FFF75A
:10170000AFF99080FFF7ACF99080FFF7A9F90AEAEA
:101710000020D4469080FFF7A3F991880843908079
:10172000A8425FD0BF20FFF783F9FFF799F99080B7
:10173000FFF796F99080FFF793F99080FFF790F903
:101740000CEA00209080FFF78BF991880843908085
:10175000404547D0D420FFF76BF9FFF781F990801F
:10176000FFF77EF99080FFF77BF90CEA002090806C
:10177000FFF776F9918808439080B04232D04FF459
:101780005A40FFF755F9FFF76BF990804FF45B4033
:10179000FFF74EF9FFF764F90CEA002090804FF450
:1017A0005C40FFF745F9FFF75BF9918808439080AB
:1017B000584501D194801EE0A04213D0A120FFF72C
:1017C00037F9FFF74DF99080FFF74AF90CEA00204E
:1017D0009080FFF745F991880843A0F5AE419080CD
:1017E000613920D080B2A84205D0B04203D0A042D7
:1017F00001D0B84219D1D9F81C11484621F00F0187
:10180000C9F81C11D9F81C1121F47061C9F81C1118
:10181000D9F81C1141F00301C9F81C11D9F81C11A9
:1018200041F400712CE09780E5E7404503D0A0F536
:101830004541053926D1D9F81C11484621F00F0140
:10184000C9F81C11D9F81C1121F47061C9F81C11D8
:10185000D9F81C1141F00A010CE00000581A0020D0
:1018600000040240000C024000100240001402403C
:1018700000180240C9F81C11D9F81C1141F440614C
:10188000C0F81C1191469188FEA01FF081FBB9F8A9
:101890000400A8427ED1CF20FFF7CAF80020FFF74E
:1018A000D3F81198401C1190C120FFF7CDF83020DB
:1018B000FFF7CAF8ED20FFF7BBF86420FFF7C4F884
:1018C0000320FFF7C1F81220FFF7BEF88120FFF7D1
:1018D000BBF8E820FFF7ACF88520FFF7B5F810203B
:1018E000FFF7B2F87A20FFF7AFF8CB20FFF7A0F8A8
:1018F0003920FFF7A9F82C20FFF7A6F80020FFF702
:10190000A3F83420FFF7A0F80220FFF79DF8F72096
:10191000FFF78EF82020FFF797F8EA20FFF788F806
:101920000020FFF791F80020FFF78EF8C020FFF7A6
:101930007FF81B20FFF788F8C120FFF779F8012016
:10194000FFF782F8C520FFF773F83020FFF77CF827
:101950003020FFF779F8C720FFF76AF8B720FFF7C4
:1019600073F83620FFF764F84820FFF76DF83A2047
:10197000FFF75EF85520FFF767F8B120FFF758F83A
:101980000020FFF761F81A20FFF75EF8B620FFF796
:101990004FF800E093E00A20FFF756F8A220FFF787
:1019A00053F8F220FFF744F80020FFF74DF8262007
:1019B000FFF73EF80120FFF747F8E020FFF738F87F
:1019C0000F20FFF741F82A20FFF73EF82820FFF705
:1019D0003BF80820FFF738F80E20FFF735F808200D
:1019E000FFF732F85420FFF72FF8A920FFF72CF863
:1019F0004320FFF729F80A20FFF726F80F20FFF70A
:101A000023F80020FFF720F80020FFF71DF8002042
:101A1000FFF71AF80020FFF717F8E120FFF708F8A2
:101A20000020FFF711F81520FFF70EF81720FFF739
:101A30000BF80720FFF708F81120FFF705F806203C
:101A4000FFF702F82B20FEF7FFFF5620FEF7FCFF02
:101A50003C20FEF7F9FF0520FEF7F6FF1020FEF709
:101A6000F3FF0F20FEF7F0FF3F20FEF7EDFF3F20D2
:101A7000FEF7EAFF0F20FEF7E7FF2B20FEF7D8FF67
:101A80000020FEF7E1FF0020FEF7DEFF0120FEF759
:101A9000DBFF3F20FEF7D8FF2A20FEF7C9FF00201A
:101AA000FEF7D2FF0020FEF7CFFF0020FEF7CCFFAD
:101AB000EF20FEF7C9FF1120FEF7BAFFA5E0404571
:101AC0007ED11120FEF7B4FF142008F0B9FFD0201A
:101AD000FEF7AEFF0720FEF7B7FF4220FEF7B4FF88
:101AE0001D20FEF7B1FFD120FEF7A2FF0020FEF778
:101AF000ABFF1A20FEF7A8FF0920FEF7A5FFD220B2
:101B0000FEF796FF0120FEF79FFF2220FEF79CFFC5
:101B1000C020FEF78DFF1020FEF796FF3B20FEF75A
:101B200093FF0020FEF790FF0220FEF78DFF1120AB
:101B3000FEF78AFFC520FEF77BFF0320FEF784FF38
:101B4000C820FEF775FF0020FEF77EFF2520FEF778
:101B50007BFF2120FEF778FF0520FEF775FF0020B0
:101B6000FEF772FF0A20FEF76FFF6520FEF76CFF9D
:101B70002520FEF769FF7720FEF766FF5020FEF76D
:101B800063FF0F20FEF760FF0020FEF75DFFF820E7
:101B9000FEF74EFF0120FEF757FFFE20FEF748FF3D
:101BA0000020FEF751FF0220FEF74EFF2020FEF737
:101BB0003FFF3620FEF73CFF0820FEF745FF00E020
:101BC00029E03A20FEF734FF5520FEF73DFF2B2099
:101BD000FEF72EFF0020FEF737FF0020FEF734FF50
:101BE0000120FEF731FF3F20FEF72EFF2A20FEF7EF
:101BF0001FFF0020FEF728FF0020FEF725FF012031
:101C0000FEF722FFDF20FEF71FFF782008F018FF05
:101C1000292001F002BFB0427DD1ED20FEF708FF80
:101C20000120FEF711FFFE20FEF70EFFEE20FEF76B
:101C3000FFFEDE20FEF708FF2120FEF705FFF12062
:101C4000FEF7F6FE0120FEF7FFFEDF20FEF7F0FEB6
:101C50001020FEF7F9FEC420FEF7EAFE8F20FEF703
:101C6000F3FEC620FEF7E4FE0020FEF7EDFEE220C4
:101C7000FEF7EAFEE220FEF7E7FEE220FEF7E4FED2
:101C8000BF2005E04C43442049443A25780D0A0022
:101C9000FEF7CEFEAA20FEF7D7FEB020FEF7C8FE64
:101CA0000D20FEF7D1FE0020FEF7CEFE0D20FEF740
:101CB000CBFE0020FEF7C8FE1120FEF7C5FE002077
:101CC000FEF7C2FE1920FEF7BFFE0020FEF7BCFEA5
:101CD0002120FEF7B9FE0020FEF7B6FE2D20FEF70C
:101CE000B3FE0020FEF7B0FE3D20FEF7ADFE002063
:101CF000FEF7AAFE5D20FEF7A7FE0020FEF7A4FE79
:101D00005D20FEF7A1FE0020FEF79EFEB120FEF74B
:101D10008FFE802000E0FCE3FEF796FE0020FEF739
:101D200093FE8B20FEF790FE0020FEF78DFE96209E
:101D3000FEF78AFE0020FEF787FEB220FEF778FE4F
:101D40000020FEF781FE0020FEF77EFE0220FEF757
:101D50007BFE0020FEF778FE0320FEF775FE0020D4
:101D6000FEF772FEB320FEF763FE0020FEF76CFE66
:101D70000020FEF769FE0020FEF766FE0020FEF759
:101D800063FE0020FEF760FE0020FEF75DFE0020EF
:101D9000FEF75AFE0020FEF757FE0020FEF754FE25
:101DA0000020FEF751FE0020FEF74EFE0020FEF759
:101DB0004BFE0020FEF748FE0020FEF745FE002007
:101DC000FEF742FE0020FEF73FFE0020FEF73CFE3D
:101DD0000020FEF739FE0020FEF736FE0020FEF759
:101DE00033FE0020FEF730FE0020FEF72DFE00201F
:101DF000FEF72AFE0020FEF727FEB420FEF718FEAD
:101E00008B20FEF721FE0020FEF71EFE9620FEF737
:101E10001BFE0020FEF718FEA120FEF715FE002095
:101E2000FEF712FEB520FEF703FE0220FEF70CFEC1
:101E30000020FEF709FE0320FEF706FE0020FEF755
:101E400003FE0420FEF700FE0020FEF7FDFDB62095
:101E5000FEF7EEFD0020FEF7F7FD0020FEF7F4FD93
:101E6000B720FEF7E5FD0020FEF7EEFD0020FEF7AF
:101E7000EBFD3F20FEF7E8FD0020FEF7E5FD5E20CC
:101E8000FEF7E2FD0020FEF7DFFD6420FEF7DCFD3B
:101E90000020FEF7D9FD8C20FEF7D6FD0020FEF7CE
:101EA000D3FDAC20FEF7D0FD0020FEF7CDFDDC20F9
:101EB000FEF7CAFD0020FEF7C7FD7020FEF7C4FD47
:101EC0000020FEF7C1FD9020FEF7BEFD0020FEF7CA
:101ED000BBFDEB20FEF7B8FD0020FEF7B5FDDC20D2
:101EE000FEF7B2FD0020FEF7AFFDB820FEF7A0FD23
:101EF0000020FEF7A9FD0020FEF7A6FD0020FEF75A
:101F0000A3FD0020FEF7A0FD0020FEF79DFD0020B0
:101F1000FEF79AFD0020FEF797FD0020FEF794FDE6
:101F2000BA20FEF785FD2420FEF78EFD0020FEF787
:101F30008BFD0020FEF788FD0020FEF785FDC12007
:101F4000FEF776FD2020FEF77FFD0020FEF77CFDEA
:101F50005420FEF779FD0020FEF776FDFF20FEF706
:101F600073FD0020FEF770FDC220FEF761FD0A2020
:101F7000FEF76AFD0020FEF767FD0420FEF764FD12
:101F80000020FEF761FDC320FEF752FD3C20FEF766
:101F90005BFD0020FEF758FD3A20FEF755FD0020BE
:101FA000FEF752FD3920FEF74FFD0020FEF74CFDF5
:101FB0003720FEF749FD0020FEF746FD3C20FEF7E6
:101FC00043FD0020FEF740FD3620FEF73DFD0020DA
:101FD000FEF73AFD3220FEF737FD0020FEF734FD14
:101FE0002F20FEF731FD0020FEF72EFD2C20FEF7FE
:101FF0002BFD0020FEF728FD2920FEF725FD0020FF
:10200000FEF722FD2620FEF71FFD0020FEF71CFD37
:102010002420FEF719FD0020FEF716FD2420FEF710
:1020200013FD0020FEF710FD2320FEF70DFD00201C
:10203000FEF70AFD3C20FEF707FD0020FEF704FD39
:102040003620FEF701FD0020FEF7FEFC3220FEF7F1
:10205000FBFC0020FEF7F8FC2F20FEF7F5FC00202B
:10206000FEF7F2FC2C20FEF7EFFC0020FEF7ECFC64
:102070002920FEF7E9FC0020FEF7E6FC2620FEF70B
:10208000E3FC0020FEF7E0FC2420FEF7DDFC00204E
:10209000FEF7DAFC2420FEF7D7FC0020FEF7D4FC84
:1020A0002320FEF7D1FC0020FEF7CEFCC420FEF773
:1020B000BFFC6220FEF7C8FC0020FEF7C5FC05202F
:1020C000FEF7C2FC0020FEF7BFFC8420FEF7BCFC3C
:1020D0000020FEF7B9FCF020FEF7B6FC0020FEF76A
:1020E000B3FC1820FEF7B0FC0020FEF7ADFCA420E6
:1020F000FEF7AAFC0020FEF7A7FC1820FEF7A4FCC0
:102100000020FEF7A1FC5020FEF79EFC0020FEF709
:102110009BFC0C20FEF798FC0020FEF795FC172096
:10212000FEF792FC0020FEF78FFC9520FEF78CFC5A
:102130000020FEF789FCF320FEF786FC0020FEF766
:1021400083FCE620FEF780FC0020FEF77DFCC52026
:10215000FEF76EFC3220FEF777FC0020FEF774FCE1
:102160004420FEF771FC0020FEF76EFC6520FEF7B0
:102170006BFC0020FEF768FC7620FEF765FC002073
:10218000FEF762FC8820FEF75FFC0020FEF75CFC97
:10219000C620FEF74DFC2020FEF756FC0020FEF77F
:1021A00053FC1720FEF750FC0020FEF74DFC0120E9
:1021B000FEF74AFC0020FEF747FCC720FEF738FC7C
:1021C0000020FEF741FC0020FEF73EFC0020FEF759
:1021D0003BFC0020FEF738FCC820FEF729FC00205D
:1021E000FEF732FC0020FEF72FFC0020FEF72CFC4F
:1021F0000020FEF729FCC920FEF71AFC0020FEF79C
:1022000023FC0020FEF720FC0020FEF71DFC002030
:10221000FEF71AFC0020FEF717FC0020FEF714FC66
:102220000020FEF711FC0020FEF70EFC0020FEF758
:102230000BFC0020FEF708FC0020FEF705FC002048
:10224000FEF702FC0020FEF7FFFB0020FEF7FCFB80
:102250000020FEF7F9FB0020FEF7F6FBE020FEF77A
:10226000E7FB1620FEF7F0FB0020FEF7EDFB1C203D
:10227000FEF7EAFB0020FEF7E7FB2120FEF7E4FB78
:102280000020FEF7E1FB3620FEF7DEFB0020FEF724
:10229000DBFB4620FEF7D8FB0020FEF7D5FB5220E3
:1022A000FEF7D2FB0020FEF7CFFB6420FEF7CCFB4D
:1022B0000020FEF7C9FB7A20FEF7C6FB0020FEF7E0
:1022C000C3FB8B20FEF7C0FB0020FEF7BDFB99206F
:1022D000FEF7BAFB0020FEF7B7FBA820FEF7B4FB21
:1022E0000020FEF7B1FBB920FEF7AEFB0020FEF7A1
:1022F000ABFBC420FEF7A8FB0020FEF7A5FBCA201D
:10230000FEF7A2FB0020FEF79FFBD220FEF79CFB0E
:102310000020FEF799FBD920FEF796FB0020FEF780
:1023200093FBE020FEF790FB0020FEF78DFBF320EF
:10233000FEF78AFB0020FEF787FBE120FEF778FB23
:102340001620FEF781FB0020FEF77EFB1C20FEF727
:102350007BFB0020FEF778FB2220FEF775FB0020B8
:10236000FEF772FB3620FEF76FFB0020FEF76CFBDA
:102370004520FEF769FB0020FEF766FB5220FEF7C2
:1023800063FB0020FEF760FB6420FEF75DFB00208E
:10239000FEF75AFB7A20FEF757FB0020FEF754FBAE
:1023A0008B20FEF751FB0020FEF74EFB9920FEF735
:1023B0004BFB0020FEF748FBA820FEF745FB002062
:1023C000FEF742FBB920FEF73FFB0020FEF73CFB87
:1023D000C420FEF739FB0020FEF736FBCA20FEF7CB
:1023E00033FB0020FEF730FBD220FEF72DFB002050
:1023F000FEF72AFBD820FEF727FB0020FEF724FB80
:10240000E020FEF721FB0020FEF71EFBF320FEF785
:102410001BFB0020FEF718FBE220FEF709FB05205E
:10242000FEF712FB0020FEF70FFB0B20FEF70CFB64
:102430000020FEF709FB1B20FEF706FB0020FEF73D
:1024400003FB3420FEF700FB0020FEF7FDFA4420DA
:10245000FEF7FAFA0020FEF7F7FA4F20FEF7F4FA3B
:102460000020FEF7F1FA6120FEF7EEFA0020FEF7F9
:10247000EBFA7920FEF7E8FA0020FEF7E5FA88206B
:10248000FEF7E2FA0020FEF7DFFA9720FEF7DCFA0B
:102490000020FEF7D9FAA620FEF7D6FA0020FEF7B4
:1024A000D3FAB720FEF7D0FA0020FEF7CDFAC2200B
:1024B000FEF7CAFA0020FEF7C7FAC720FEF7C4FAF3
:1024C0000020FEF7C1FAD120FEF7BEFA0020FEF789
:1024D000BBFAD620FEF7B8FA0020FEF7B5FADD20E9
:1024E000FEF7B2FA0020FEF7AFFAF320FEF7ACFADF
:1024F0000020FEF7A9FAE320FEF79AFA0520FEF77E
:10250000A3FA0020FEF7A0FA0A20FEF79DFA0020A9
:1025100000E003E3FEF798FA1C20FEF795FA00208E
:10252000FEF792FA3320FEF78FFA0020FEF78CFABE
:102530004420FEF789FA0020FEF786FA5020FEF7C5
:1025400083FA0020FEF780FA6220FEF77DFA002071
:10255000FEF77AFA7820FEF777FA0020FEF774FA91
:102560008820FEF771FA0020FEF76EFA9720FEF73A
:102570006BFA0020FEF768FAA620FEF765FA002045
:10258000FEF762FAB720FEF75FFA0020FEF75CFA6A
:10259000C220FEF759FA0020FEF756FAC720FEF7D0
:1025A00053FA0020FEF750FAD120FEF74DFA002032
:1025B000FEF74AFAD520FEF747FA0020FEF744FA64
:1025C000DD20FEF741FA0020FEF73EFAF320FEF789
:1025D0003BFA0020FEF738FAE420FEF729FA012042
:1025E000FEF732FA0020FEF72FFA0120FEF72CFA50
:1025F0000020FEF729FA0220FEF726FA0020FEF757
:1026000023FA2A20FEF720FA0020FEF71DFA3C20CC
:10261000FEF71AFA0020FEF717FA4B20FEF714FA1D
:102620000020FEF711FA5D20FEF70EFA0020FEF7FB
:102630000BFA7420FEF708FA0020FEF705FA842052
:10264000FEF702FA0020FEF7FFF99320FEF7FCF9EF
:102650000020FEF7F9F9A220FEF7F6F90020FEF7B8
:10266000F3F9B320FEF7F0F90020FEF7EDF9BE20F4
:10267000FEF7EAF90020FEF7E7F9C420FEF7E4F9D7
:102680000020FEF7E1F9CD20FEF7DEF90020FEF78D
:10269000DBF9D320FEF7D8F90020FEF7D5F9DD20CD
:1026A000FEF7D2F90020FEF7CFF9F320FEF7CCF9C0
:1026B0000020FEF7C9F9E520FEF7BAF90020FEF781
:1026C000C3F90020FEF7C0F90020FEF7BDF9002095
:1026D000FEF7BAF90220FEF7B7F90020FEF7B4F9C9
:1026E0002920FEF7B1F90020FEF7AEF93C20FEF7F5
:1026F000ABF90020FEF7A8F94B20FEF7A5F9002062
:10270000FEF7A2F95D20FEF79FF90020FEF79CF985
:102710007420FEF799F90020FEF796F98420FEF761
:1027200093F90020FEF790F99320FEF78DF9002031
:10273000FEF78AF9A220FEF787F90020FEF784F958
:10274000B320FEF781F90020FEF77EF9BE20FEF7E8
:102750007BF90020FEF778F9C420FEF775F9002018
:10276000FEF772F9CD20FEF76FF90020FEF76CF945
:10277000D320FEF769F90020FEF766F9DC20FEF7AA
:1027800063F90020FEF760F9F320FEF75DF9002001
:10279000FEF75AF9E620FEF74BF91120FEF754F93F
:1027A0000020FEF751F93420FEF74EF90020FEF725
:1027B0004BF95620FEF748F90020FEF745F9762040
:1027C000FEF742F90020FEF73FF97720FEF73CF9CB
:1027D0000020FEF739F96620FEF736F90020FEF7F3
:1027E00033F98820FEF730F90020FEF72DF9992003
:1027F000FEF72AF90020FEF727F9BB20FEF724F99F
:102800000020FEF721F99920FEF71EF90020FEF7BF
:102810001BF96620FEF718F90020FEF715F9552080
:10282000FEF712F90020FEF70FF95520FEF70CF91C
:102830000020FEF709F94520FEF706F90020FEF713
:1028400003F94320FEF700F90020FEF7FDF84420CD
:10285000FEF7FAF80020FEF7F7F8E720FEF7E8F8B1
:102860003220FEF7F1F80020FEF7EEF85520FEF7D3
:10287000EBF80020FEF7E8F87620FEF7E5F80020F8
:10288000FEF7E2F86620FEF7DFF80020FEF7DCF83E
:102890006720FEF7D9F80020FEF7D6F86720FEF78C
:1028A000D3F80020FEF7D0F88720FEF7CDF80020FF
:1028B000FEF7CAF89920FEF7C7F80020FEF7C4F823
:1028C000BB20FEF7C1F80020FEF7BEF89920FEF706
:1028D000BBF80020FEF7B8F87720FEF7B5F8002027
:1028E000FEF7B2F84420FEF7AFF80020FEF7ACF890
:1028F0005620FEF7A9F80020FEF7A6F82320FEF7E1
:10290000A3F80020FEF7A0F83320FEF79DF8002082
:10291000FEF79AF84520FEF797F80020FEF794F8A6
:10292000E820FEF785F80020FEF78EF80020FEF77D
:102930008BF89920FEF788F80020FEF785F88720AD
:10294000FEF782F80020FEF77FF88820FEF77CF87B
:102950000020FEF779F87720FEF776F80020FEF7E2
:1029600073F86620FEF770F80020FEF76DF88820F7
:10297000FEF76AF80020FEF767F8AA20FEF764F871
:102980000020FEF761F8BB20FEF75EF80020FEF79E
:102990005BF89920FEF758F80020FEF755F86620FE
:1029A000FEF752F80020FEF74FF85520FEF74CF8DE
:1029B0000020FEF749F85520FEF746F80020FEF704
:1029C00043F84420FEF740F80020FEF73DF844208D
:1029D000FEF73AF80020FEF737F85520FEF734F8F6
:1029E0000020FEF731F8E920FEF722F8AA20FEF7D2
:1029F0002BF80020FEF728F80020FEF725F800202D
:102A0000FEF722F80020FEF713F8AA20FEF71CF8C4
:102A1000CF20FEF70DF80020FEF716F80020FEF795
:102A200013F80020FEF710F80020FEF70DF8002044
:102A3000FEF70AF80020FEF707F80020FEF704F87A
:102A40000020FEF701F80020FDF7FEFF0020FDF753
:102A5000FBFF0020FDF7F8FF0020FDF7F5FF002049
:102A6000FDF7F2FF0020FDF7EFFF0020FDF7ECFF80
:102A70000020FDF7E9FF0020FDF7E6FFF020FDF75D
:102A8000D7FF0020FDF7E0FF5020FDF7DDFF00201D
:102A9000FDF7DAFF0020FDF7D7FF0020FDF7D4FF98
:102AA000F320FDF7C5FF0020FDF7CEFFF920FDF76D
:102AB000BFFF0620FDF7C8FF1020FDF7C5FF292046
:102AC000FDF7C2FF0020FDF7BFFF3A20FDF7B0FF82
:102AD0005520FDF7B9FF1120FDF7AAFF642007F08C
:102AE000AFFF2920FDF7A4FF3520FDF7A1FF00204F
:102AF000FDF7AAFF5120FDF79BFFFF20FDF7A4FF84
:102B00005320FDF795FF2C20FDF79EFF5520FDF784
:102B10008FFF8220FDF798FF2C20FCE3A0427DD19F
:102B20004FF4704455212046FDF7A4FF651CAA21EF
:102B30002846FDF79FFFA61C52213046FDF79AFF5D
:102B4000E71C08213846FDF795FF4FF2040C0121E0
:102B50006046FDF78FFF0D214FF43040FDF78AFFEF
:102B60000D214BF20100FDF785FF0D214BF2020014
:102B7000FDF780FF4FF4364834214046FDF77AFFD9
:102B800034214BF20160FDF775FF34214BF20260F6
:102B9000FDF770FF4FF431490D214846FDF76AFFFC
:102BA0004BF2011B0D215846FDF764FF0D214BF23E
:102BB0000210FDF75FFF34214FF43740FDF75AFF55
:102BC00034214BF20170FDF755FF34214BF20270B6
:102BD000FDF750FF00214FF43240FDF74BFF00217D
:102BE0004BF20120FDF746FF00214BF20220FDF7DA
:102BF00041FF24214FF43840FDF73CFF24214BF6E0
:102C00000100FDF737FF24214BF60200FDF732FFEC
:102C100001214FF43F40FDF72DFF00E0FEE30F21BF
:102C20004FF43340FDF726FF0F214BF20130FDF743
:102C300021FF0F214BF20230FDF71CFF34214FF42E
:102C40003940FDF717FF34214BF60110FDF712FF55
:102C500034214BF60210FDF70DFF08214FF43540EB
:102C6000FDF708FF08214BF20150FDF703FF082193
:102C70004BF20250FDF7FEFE03214FF44240FDF7F8
:102C8000F9FE24214FF43A40FDF7F4FE24214BF6DF
:102C90000120FDF7EFFE24214BF60220FDF7EAFEAE
:102CA00000214FF43C40FDF7E5FE78214BF6014052
:102CB000FDF7E0FE00214BF60240FDF7DBFE0021B0
:102CC0004FF43D40FDF7D6FE78214BF60150FDF75D
:102CD000D1FE00214BF60250FDF7CCFE00214FF44F
:102CE0003E40FDF7C7FE64214BF60160FDF7C2FED2
:102CF00000214FF45140FDF7BDFE33214DF201108C
:102D0000FDF7B8FE00214DF20210FDF7B3FE3421AD
:102D10004DF20310FDF7AEFE00214DF20410FDF759
:102D2000A9FE3A214DF20510FDF7A4FE00214DF257
:102D30000610FDF79FFE4A214DF20710FDF79AFE9F
:102D400000214DF20810FDF795FE5C214DF20910AF
:102D5000FDF790FE00214DF20A10FDF78BFE812158
:102D60004DF20B10FDF786FE00214DF20C10FDF721
:102D700081FEA6214DF20D10FDF77CFE00214DF2E3
:102D80000E10FDF777FEE5214DF20F10FDF772FEF4
:102D900001214DF21010FDF76DFE13214DF21110BF
:102DA000FDF768FE01214DF21210FDF763FE54217C
:102DB0004DF21310FDF75EFE01214DF21410FDF7E8
:102DC00059FE82214DF21510FDF754FE01214DF2FE
:102DD0001610FDF74FFECA214DF21710FDF74AFEFF
:102DE00002214DF21810FDF745FE00214DF2191099
:102DF000FDF740FE02214DF21A10FDF73BFE0121C6
:102E00004DF21B10FDF736FE02214DF21C10FDF7AE
:102E100031FE34214DF21D10FDF72CFE02214DF242
:102E20001E10FDF727FE67214DF21F10FDF722FE51
:102E300002214DF22010FDF71DFE84214DF22110DC
:102E4000FDF718FE02214DF22210FDF713FEA4211A
:102E50004DF22310FDF70EFE02214DF22410FDF776
:102E600009FEB7214DF22510FDF704FE02214DF2B7
:102E70002610FDF7FFFDCF214DF22710FDF7FAFDDB
:102E800002214DF22810FDF7F5FDDE214DF229104B
:102E9000FDF7F0FD02214DF22A10FDF7EBFDF221C6
:102EA0004DF22B10FDF7E6FD02214DF22C10FDF73F
:102EB000E1FDFE214DF22D10FDF7DCFD03214DF269
:102EC0002E10FDF7D7FD10214DF22F10FDF7D2FD8A
:102ED00003214DF23010FDF7CDFD33214DF23110BD
:102EE000FDF7C8FD03214DF23210FDF7C3FD6D2142
:102EF0004DF23310FDF7BEFD00214FF45240FDF7B7
:102F0000B9FD33214DF20120FDF7B4FD00214DF252
:102F10000220FDF7AFFD34214DF20320FDF7AAFD9D
:102F200000214DF20420FDF7A5FD3A214DF20520C8
:102F3000FDF7A0FD00214DF20620FDF79BFD4A2183
:102F40004DF20720FDF796FD00214DF20820FDF718
:102F500091FD5C214DF20920FDF78CFD00214DF221
:102F60000A20FDF787FD81214DF20B20FDF782FD40
:102F700000214DF20C20FDF77DFDA6214DF20D2024
:102F8000FDF778FD00214DF20E20FDF773FDE521E0
:102F90004DF20F20FDF76EFD01214DF21020FDF7DF
:102FA00069FD13214DF21120FDF764FD01214DF261
:102FB0001220FDF75FFD54214DF21320FDF75AFD5D
:102FC00001214DF21420FDF755FD82214DF215200F
:102FD000FDF750FD01214DF21620FDF74BFDCA21F2
:102FE0004DF21720FDF746FD02214DF21820FDF7A6
:102FF00041FD00214DF21920FDF73CFD02214DF26B
:103000001A20FDF737FD01214DF21B20FDF732FD9F
:1030100002214DF21C20FDF72DFD34214DF21D2023
:10302000FDF728FD02214DF21E20FDF723FD67214B
:103030004DF21F20FDF71EFD02214DF22020FDF76D
:1030400019FD84214DF22120FDF714FD02214DF2DE
:103050002220FDF70FFDA4214DF22320FDF70AFDEC
:1030600002214DF22420FDF705FDB7214DF2252068
:10307000FDF700FD02214DF22620FDF7FBFCCF21DC
:103080004DF22720FDF7F6FC02214DF22820FDF736
:10309000F1FCDE214DF22920FDF7ECFC02214DF27E
:1030A0002A20FDF7E7FCF2214DF22B20FDF7E2FC90
:1030B00002214DF22C20FDF7DDFCFE214DF22D20EA
:1030C000FDF7D8FC03214DF22E20FDF7D3FC102193
:1030D0004DF22F20FDF7CEFC03214DF23020FDF7FD
:1030E000C9FC33214DF23120FDF7C4FC03214DF220
:1030F0003220FDF7BFFC6D214DF23320FDF7BAFC05
:1031000000214FF45340FDF7B5FC33214DF201305F
:10311000FDF7B0FC00214DF20230FDF7ABFC34218D
:103120004DF20330FDF7A6FC00214DF20430FDF70F
:10313000A1FC3A214DF20530FDF79CFC00214DF237
:103140000630FDF797FC4A214DF20730FDF792FC5F
:1031500000214DF20830FDF78DFC5C214DF2093065
:10316000FDF788FC00214DF20A30FDF783FC812138
:103170004DF20B30FDF77EFC00214DF20C30FDF7D7
:1031800079FCA6214DF20D30FDF774FC00214DF2C3
:103190000E30FDF76FFCE5214DF20F30FDF76AFCB4
:1031A00001214DF21030FDF765FC13214DF2113075
:1031B000FDF760FC01214DF21230FDF75BFC54215C
:1031C0004DF21330FDF756FC01214DF21430FDF79E
:1031D00051FC82214DF21530FDF74CFC01214DF2DE
:1031E0001630FDF747FCCA214DF21730FDF742FCBF
:1031F00002214DF21830FDF73DFC00214DF219304F
:10320000FDF738FC02214DF21A30FDF733FC0121A5
:103210004DF21B30FDF72EFC02214DF21C30FDF764
:1032200029FC34214DF21D30FDF724FC02214DF222
:103230001E30FDF71FFC67214DF21F30FDF71AFC11
:1032400002214DF22030FDF715FC84214DF2213092
:10325000FDF710FC02214DF22230FDF70BFCA421FA
:103260004DF22330FDF706FC02214DF22430FDF72C
:1032700001FCB7214DF22530FDF7FCFB02214DF298
:103280002630FDF7F7FBCF214DF22730FDF7F2FB9B
:1032900002214DF22830FDF7EDFBDE214DF2293001
:1032A000FDF7E8FB02214DF22A30FDF7E3FBF221A6
:1032B0004DF22B30FDF7DEFB02214DF22C30FDF7F5
:1032C000D9FBFE214DF22D30FDF7D4FB03214DF249
:1032D0002E30FDF7CFFB10214DF22F30FDF7CAFB4A
:1032E00003214DF23030FDF7C5FB33214DF2313073
:1032F000FDF7C0FB03214DF23230FDF7BBFB6D2122
:103300004DF23330FDF7B6FB00214FF45440FDF78A
:10331000B1FB332100E080E34DF20140FDF7AAFB51
:1033200000214DF20240FDF7A5FB34214DF2034090
:10333000FDF7A0FB00214DF20440FDF79BFB3A2175
:103340004DF20540FDF796FB00214DF20640FDF7DA
:1033500091FB4A214DF20740FDF78CFB00214DF215
:103360000840FDF787FB5C214DF20940FDF782FB29
:1033700000214DF20A40FDF77DFB81214DF20B400B
:10338000FDF778FB00214DF20C40FDF773FBA62101
:103390004DF20D40FDF76EFB00214DF20E40FDF7A2
:1033A00069FBE5214DF20F40FDF764FB01214DF271
:1033B0001040FDF75FFB13214DF21140FDF75AFB62
:1033C00001214DF21240FDF755FB54214DF21340FF
:1033D000FDF750FB01214DF21440FDF74BFB82211C
:1033E0004DF21540FDF746FB01214DF21640FDF769
:1033F00041FBCA214DF21740FDF73CFB02214DF283
:103400001840FDF737FB00214DF21940FDF732FB64
:1034100002214DF21A40FDF72DFB00E000E30121EF
:103420004DF21B40FDF726FB02214DF21C40FDF73B
:1034300021FB34214DF21D40FDF71CFB02214DF212
:103440001E40FDF717FB67214DF21F40FDF712FBF1
:1034500002214DF22040FDF70DFB84214DF2214069
:10346000FDF708FB02214DF22240FDF703FBA421EA
:103470004DF22340FDF7FEFA02214DF22440FDF704
:10348000F9FAB7214DF22540FDF7F4FA02214DF289
:103490002640FDF7EFFACF214DF22740FDF7EAFA7B
:1034A00002214DF22840FDF7E5FADE214DF22940D8
:1034B000FDF7E0FA02214DF22A40FDF7DBFAF22196
:1034C0004DF22B40FDF7D6FA02214DF22C40FDF7CC
:1034D000D1FAFE214DF22D40FDF7CCFA03214DF239
:1034E0002E40FDF7C7FA10214DF22F40FDF7C2FA2A
:1034F00003214DF23040FDF7BDFA33214DF231404A
:10350000FDF7B8FA03214DF23240FDF7B3FA6D2111
:103510004DF23340FDF7AEFA00214FF45540FDF770
:10352000A9FA33214DF20150FDF7A4FA00214DF222
:103530000250FDF79FFA34214DF20350FDF79AFA3D
:1035400000214DF20450FDF795FA3A214DF2055055
:10355000FDF790FA00214DF20650FDF78BFA4A2153
:103560004DF20750FDF786FA00214DF20850FDF7A5
:1035700081FA5C214DF20950FDF77CFA00214DF2F1
:103580000A50FDF777FA81214DF20B50FDF772FAE0
:1035900000214DF20C50FDF76DFAA6214DF20D50B1
:1035A000FDF768FA00214DF20E50FDF763FAE521B0
:1035B0004DF20F50FDF75EFA01214DF21050FDF76C
:1035C00059FA13214DF21150FDF754FA01214DF231
:1035D0001250FDF74FFA54214DF21350FDF74AFAFD
:1035E00001214DF21450FDF745FA82214DF215509C
:1035F000FDF740FA01214DF21650FDF73BFACA21C2
:103600004DF21750FDF736FA02214DF21850FDF732
:1036100031FA00214DF21950FDF72CFA02214DF23A
:103620001A50FDF727FA01214DF21B50FDF722FA3F
:1036300002214DF21C50FDF71DFA34214DF21D50B0
:10364000FDF718FA02214DF21E50FDF713FA67211B
:103650004DF21F50FDF70EFA02214DF22050FDF7FA
:1036600009FA84214DF22150FDF704FA02214DF2AE
:103670002250FDF7FFF9A4214DF22350FDF7FAF98E
:1036800002214DF22450FDF7F5F9B7214DF22550F6
:10369000FDF7F0F902214DF22650FDF7EBF9CF21AD
:1036A0004DF22750FDF7E6F902214DF22850FDF7C3
:1036B000E1F9DE214DF22950FDF7DCF902214DF24E
:1036C0002A50FDF7D7F9F2214DF22B50FDF7D2F930
:1036D00002214DF22C50FDF7CDF9FE214DF22D5077
:1036E000FDF7C8F903214DF22E50FDF7C3F9102163
:1036F0004DF22F50FDF7BEF903214DF23050FDF78A
:10370000B9F933214DF23150FDF7B4F903214DF2EF
:103710003250FDF7AFF96D214DF23350FDF7AAF9A4
:1037200000214FF45640FDF7A5F933214DF2016019
:10373000FDF7A0F900214DF20260FDF79BF934215D
:103740004DF20360FDF796F900214DF20460FDF79C
:1037500091F93A214DF20560FDF78CF900214DF207
:103760000660FDF787F94A214DF20760FDF782F9FF
:1037700000214DF20860FDF77DF95C214DF20960F2
:10378000FDF778F900214DF20A60FDF773F9812108
:103790004DF20B60FDF76EF900214DF20C60FDF764
:1037A00069F9A6214DF20D60FDF764F900214DF293
:1037B0000E60FDF75FF9E5214DF20F60FDF75AF954
:1037C00001214DF21060FDF755F913214DF2116002
:1037D000FDF750F901214DF21260FDF74BF954212C
:1037E0004DF21360FDF746F901214DF21460FDF72B
:1037F00041F982214DF21560FDF73CF901214DF2AE
:103800001660FDF737F9CA214DF21760FDF732F95E
:1038100002214DF21860FDF72DF900214DF21960DB
:10382000FDF728F902214DF21A60FDF723F9012175
:103830004DF21B60FDF71EF902214DF21C60FDF7F1
:1038400019F934214DF21D60FDF714F902214DF2F2
:103850001E60FDF70FF967214DF21F60FDF70AF9B1
:1038600002214DF22060FDF705F984214DF221601F
:10387000FDF700F902214DF22260FDF7FBF8A421CB
:103880004DF22360FDF7F6F802214DF22460FDF7BA
:10389000F1F8B7214DF22560FDF7ECF802214DF269
:1038A0002660FDF7E7F8CF214DF22760FDF7E2F83B
:1038B00002214DF22860FDF7DDF8DE214DF229608E
:1038C000FDF7D8F802214DF22A60FDF7D3F8F22176
:1038D0004DF22B60FDF7CEF802214DF22C60FDF782
:1038E000C9F8FE214DF22D60FDF7C4F803214DF219
:1038F0002E60FDF7BFF810214DF22F60FDF7BAF8EA
:1039000003214DF23060FDF7B5F833214DF23160FF
:10391000FDF7B0F803214DF23260FDF7ABF86D21F1
:103920004DF23360FDF7A6F855212046FDF7A2F8C9
:10393000AA212846FDF79EF852213046FDF79AF855
:1039400008213846FDF796F800216046FDF792F809
:10395000CC214846FDF78EF800215846FDF78AF83D
:1039600005214046FDF786F870214FF43740FDF7FA
:1039700081F870214BF20170FDF77CF801214FF4C2
:103980003840FDF777F803214BF60100FDF772F898
:1039900003214BF60200FDF76DF803214BF60300FF
:1039A000FDF768F802214FF43C40FDF763F8002171
:1039B0004BF60140FDF75EF800214BF60240FDF7A3
:1039C00059F8D0214FF44940FDF754F802214CF644
:1039D0000110FDF74FF850214CF60210FDF74AF8A0
:1039E00050214CF60310FDF745F850214CF6041019
:1039F000FDF740F800214FF45450FDF73BF85521F6
:103A00004FF46850FDF736F84FF48850FDF710F882
:103A1000782006F0F6FF4FF42450FDF709F8FDE09A
:103A2000A0F513414FF480744FF4E06940F2022B8B
:103A30004FF4274625397CD0A0F5134140F2077595
:103A4000283977D0A0F513414FF488764FF41C58ED
:103A5000203970D0A0F5134131396DD0A0F5A841BF
:103A600008396AD0A0F5A8514FF44076053965D0E1
:103A7000A0F5354105397CD0A0F54541053979D00F
:103A8000A0F58A41313976D0A0F58A41353973D015
:103A9000B842C4D1E220FCF7CBFF1D20FCF7D4FFD5
:103AA0000220FCF7D1FF0420FCF7CEFF642006F0D3
:103AB000A8FFE020FCF7BCFF0120FCF7C5FF0A20AF
:103AC00006F0BEFFE020FCF7B3FF0320FCF7BCFFCD
:103AD0000C2006F0B5FF0120FCF7AAFF0A2006F033
:103AE000AFFFE620FCF7A4FF2F20FCF7ADFFFF207F
:103AF000FCF7AAFFFF20FCF7A7FFB020FCF798FF18
:103B00002020FCF7A1FF0020FCF79EFF0320FCF71C
:103B10009BFF40F21F30FCF797FF0120FCF794FF5A
:103B200040F2DF10FCF790FF0020FCF78DFFB4207F
:103B300005E080E04BE107E2AEE283E3FEE3FCF761
:103B400077FF0420FCF780FF40F21F40FCF77CFF6A
:103B50000020FCF779FF2E20FCF776FF1D20FCF7F4
:103B600073FF0020FCF770FF0020FCF76DFF0020C2
:103B700003E0FDE3FDE3FDE3FDE3FCF765FFB620B5
:103B8000FCF756FF0220FCF75FFF4FF40370FCF7D1
:103B90005BFF0020FCF758FF1720FCF755FF1520AE
:103BA000FCF752FF0020FCF74FFF0020FCF74CFF12
:103BB000F020FCF73DFF0320FCF746FF2920FCF72F
:103BC00037FFD020FCF734FF0020FCF73DFFBE207C
:103BD000FCF72EFF0520FCF737FFFE20FCF734FF33
:103BE0000120FCF731FF0020FCF72EFF0020FCF73E
:103BF0002BFF0020FCF728FFB820FCF719FF03205B
:103C0000FCF722FF0120FCF71FFFBA20FCF710FF92
:103C10000120FCF719FF6420FDF76DFA0020FDF785
:103C20008DFAFF490120C1F8BC025046FDF714FC93
:103C300021B0BDE8F08F47F6F001E520FCF71AFF50
:103C400021460120FCF716FF49460220FCF712FF2F
:103C500041F230010320FCF70DFF00210420FCF7A6
:103C600009FF59460820FCF705FF00210920FCF751
:103C700001FF00210A20FCF7FDFE00210C20FCF7CB
:103C8000F9FE00210D20FCF7F5FE00210F20FCF7C6
:103C9000F1FE00211020FCF7EDFE07211120FCF7BA
:103CA000E9FE00211220FCF7E5FE00211320FCF7BD
:103CB000E1FE00210720FCF7DDFE41F290611020BB
:103CC000FCF7D8FE40F227211120FCF7D3FE9D21FE
:103CD0001220FCF7CFFE4FF4C8511320FCF7CAFEA8
:103CE00025212920FCF7C6FE0D212B20FCF7C2FE62
:103CF00007213020FCF7BEFE40F203313120FCF7F3
:103D0000B9FE03213220FCF7B5FE40F20621352032
:103D1000FCF7B0FE08213620FCF7ACFE40F206416D
:103D20003720FCF7A7FE4FF441713820FCF7A2FEC4
:103D300007213920FCF79EFE40F202613C20FCF78F
:103D400099FE08213D20FCF795FE00215020FCF74C
:103D500091FEEF215120FCF78DFE00215220FCF74F
:103D600089FE40F23F115320FCF784FE314660206B
:103D7000FCF780FE01216120FCF77CFE00216A2017
:103D8000FCF778FE00218020FCF774FE00218120E2
:103D9000FCF770FE00218220FCF76CFE00218320DE
:103DA000FCF768FE00218420FCF764FE00218520DA
:103DB000FCF760FE10219020FCF75CFE4FF4C06120
:103DC0009220FCF757FE40F233110720FDE341F249
:103DD0008F01EC20FCF74EFE41F23421EF20FCF77E
:103DE00049FE21460120FCF745FE49460220FCF72A
:103DF00041FE41F230010320FCF73CFE002104208B
:103E0000FCF738FE59460820FCF734FE0021092053
:103E1000FCF730FE00210A20FCF72CFE01210C20CB
:103E2000FCF728FE00210D20FCF724FE00210F20C6
:103E3000FCF720FE00211020FCF71CFE07211120BA
:103E4000FCF718FE00211220FCF714FE00211320BD
:103E5000FCF710FE01210720FCF70CFE322006F0D3
:103E6000EFFD41F290411020FCF704FE40F22721C3
:103E70001120FCF7FFFD322006F0E2FD8A2112201E
:103E8000FCF7F8FD322006F0DBFD4FF4D051132093
:103E9000FCF7F0FD06212920FCF7ECFD0D212B207D
:103EA000FCF7E8FD322006F0CBFD00212020FCF7D6
:103EB000E1FD00212120FCF7DDFD322006F0C0FDF0
:103EC00000213020FCF7D6FD40F204613120FCF7E0
:103ED000D1FD40F205313220FCF7CCFD0021352028
:103EE000FCF7C8FD40F609413620FCF7C3FD4FF44E
:103EF00001713720FCF7BEFD40F201313820FCF79C
:103F0000B9FD29463920FCF7B5FD00213C20FCF71E
:103F1000B1FD40F60A213D20FCF7ACFD322006F051
:103F20008FFD00215020FCF7A5FDEF215120FCF76B
:103F3000A1FD00215220FCF79DFD40F23F115320CE
:103F4000FCF798FD314652E100210846FCF792FD4E
:103F500021460120FCF78EFD49460220FCF78AFD30
:103F600041F230010320FCF785FD00210420FCF71D
:103F700081FD59460820FCF77DFD00210920FCF752
:103F800079FD00210A20FCF775FD01210C20FCF7CA
:103F900071FD00210D20FCF76DFD00210F20FCF7C5
:103FA00069FD322006F04CFD40F201110720FCF7BC
:103FB00061FD322006F044FD4FF486511020FCF7DD
:103FC00059FD07211120FCF755FD31461220FCF761
:103FD00051FD4FF430611320FCF74CFD00212920E6
:103FE000FCF748FD44F210012B20FCF743FD0021B3
:103FF0005020FCF73FFDEF215120FCF73BFD002155
:104000005220FCF737FD40F23F115320FCF732FD00
:1040100041466020FCF72EFD0121612002E00000F6
:1040200000804042FCF726FD00216A20FCF722FDBB
:1040300000218020FCF71EFD00218120FCF71AFDE5
:1040400000218220FCF716FD00218320FCF712FDE1
:1040500000218420FCF70EFD00218520FCF70AFDDD
:1040600010219020FCF706FD00219220FCF702FDB4
:1040700001219320FCF7FEFC31469520FCF7FAFC69
:1040800000219720FCF7F6FC00219820FCF7F2FCB9
:1040900040F27311072082E341F21401E720FCF79C
:1040A000E9FC21460120FCF7E5FC4FF400710220F9
:1040B000FCF7E0FC41F238010320FCF7DBFC594639
:1040C0000820FCF7D7FC00210920FCF7D3FC0021D5
:1040D0000A20FCF7CFFC00210C20FCF7CBFC0021D0
:1040E0000D20FCF7C7FC00210F20FCF7C3FC0021CA
:1040F0001020FCF7BFFC07211120FCF7BBFC0021BE
:104100001220FCF7B7FC00211320FCF7B3FCC820F9
:1041100006F096FC41F290611020FCF7ABFC40F2F7
:1041200027211120FCF7A6FC322006F089FC0C2187
:104130001220FCF79FFC322006F082FC4FF4006155
:104140001320FCF797FC11212920FCF793FC0B218D
:104150002B20FCF78FFC322006F072FC002120207F
:10416000FCF788FC40F23F1421462120FCF782FC3A
:1041700000213020FCF77EFC4FF48376314631205D
:10418000FCF778FC00213220FCF774FC4FF401713D
:104190003520FCF76FFC41F20A613620FCF76AFC1F
:1041A00029463720FCF766FC31463820FCF762FCD4
:1041B00029463920FCF75EFC40F202413C20FCF726
:1041C00059FC40F60F413D20FCF754FC00215020E3
:1041D000FCF750FCEF215120FCF74CFC0021522051
:1041E000FCF748FC21465320FCF744FC4146602084
:1041F000FCF740FC01216120FCF73CFC00216A2017
:10420000FCF738FC00218020FCF734FC00218120E1
:10421000FCF730FC00218220FCF72CFC00218320DD
:10422000FCF728FC00218420FCF724FC00218520D9
:10423000FCF720FC10219020FCF71CFC4FF4C0611F
:104240009220FCE321460120FCF714FC49460220A1
:10425000FCF710FC41F230010320FCF70BFC0021BD
:104260000420FCF707FC40F207210820FCF702FCC1
:1042700000210920FCF7FEFB00210A20FCF7FAFBD5
:1042800000210C20FCF7F6FB00210D20FCF7F2FBCF
:1042900000210F20FCF7EEFB142006F0D1FB41F2C9
:1042A000B0611020FCF7E6FB01211120FCF7E2FBD6
:1042B00001211720FCF7DEFB4FF49C711220FCF764
:1042C000D9FB4FF400611320FCF7D4FB092129200E
:1042D000FCF7D0FB09212A20FCF7CCFB0021A4200D
:1042E000FCF7C8FB00215020FCF7C4FBEF21512054
:1042F000FCF7C0FB00215220FCF7BCFB40F23F1151
:104300005320FCF7B7FB41466020FCF7B3FB0121CB
:104310006120FCF7AFFB00216A20FCF7ABFB00211A
:104320008020FCF7A7FB00218120FCF7A3FB0021E4
:104330008220FCF79FFB0021832000E025E0FCF7B2
:1043400099FB00218420FCF795FB00218520FCF7D8
:1043500091FB13219020FCF78DFB00219220FCF7AC
:1043600089FB03219320FCF785FB3146952003E070
:1043700018E115E2DCE291E3FCF77CFB40F27311FB
:104380000720FCF777FB322008E100210720FCF72B
:1043900071FB322006F054FB4FF48E711220FCF7B3
:1043A00069FB0121A420FCF765FB0F210820FCF725
:1043B00061FB08210A20FCF75DFB08210D20FCF7BA
:1043C00059FB2F4629463020FCF754FB07213120AA
:1043D000FCF750FB40F203613220FCF74BFB4D46EB
:1043E00049463320FCF746FB59463420FCF742FB94
:1043F00002213520FCF73EFB41F60F713620FCF719
:1044000039FB39463720FCF735FB00213820FCF713
:1044100031FB00213920FCF72DFB39463A20FCF70F
:1044200029FB00213B20FCF725FB07213C20FCF762
:1044300021FB00213D20FCF71DFB322006F000FB94
:1044400001210720FCF716FB01211720FCF712FBC6
:10445000322006F0F5FA4FF4BD511020FCF70AFBAC
:1044600040F217211120FCF705FB4FF48F71122049
:10447000FCF700FB4FF470611320FCF7FBFA0021FE
:104480002A20FCF7F7FA0A212920FCF7F3FA4FF467
:104490009F711220FCF7EEFA00215020FCF7EAFA97
:1044A000EF215120FCF7E6FA00215220FCF7E2FA56
:1044B00040F23F115320FCF7DDFA41466020FCF743
:1044C000D9FA01216120FCF7D5FA00216A20FCF716
:1044D000D1FA00218020FCF7CDFA00218120FCF7E1
:1044E000C9FA00218220FCF7C5FA00218320FCF7DD
:1044F000C1FA00218420FCF7BDFA00218520FCF7D9
:10450000B9FA13219020FCF7B5FA31469220FCF756
:10451000B1FA05219320FCF7ADFA00219520FCF7B4
:10452000A9FA00219720FCF7A5FA00219820FCF7B2
:10453000A1FA21460120FCF79DFA29460220FCF74A
:1045400099FA41F238010320FCF794FA0021042083
:10455000FCF790FA00210C20FCF78CFA00210F20C8
:10456000FCF788FA00212020FCF784FA00212120A2
:10457000FCF780FA21210720FCF77CFA142006F0D2
:104580005FFA61210720FCF775FA142006F058FA4B
:1045900040F273110720FCF76DFA142006F050FA70
:1045A000FFF73CBB00210846FCF764FA00210846EF
:1045B000FCF760FA00210846FCF75CFA0021084687
:1045C000FCF758FA0121A42000E0E4E0FCF752FADD
:1045D000142006F035FA454641466020FCF74AFAB9
:1045E0005E4659460820FCF745FA4FF40571302025
:1045F000FCF740FA43F215713120FCF73BFA40F228
:1046000004613220FCF736FA40F616613320FCF7DD
:1046100031FA42F211213420FCF72CFA4FF4A85160
:104620003520FCF727FA48F207513620FCF722FA2A
:1046300041F207413720FCF71DFA41F203413820CF
:10464000FCF718FA20213920FCF714FA1A219020DF
:10465000FCF710FA00211020FCF70CFA07211120BA
:10466000FCF708FA00211220FCF704FA00211320BD
:10467000FCF700FA142006F0E3F94FF4E66110208D
:10468000FCF7F8F940F237111120FCF7F3F9142088
:1046900006F0D6F94FF4DC711220FCF7EBF9142088
:1046A00006F0CEF94FF470611320FCF7E3F9802196
:1046B0002A20FCF7DFF948212920FCF7DBF9142038
:1046C00006F0BEF921460120FCF7D4F94946022044
:1046D000FCF7D0F941F238010320FCF7CBF9314661
:1046E0000820FCF7C7F900210A20FCF7C3F90021D4
:1046F0000C20FCF7BFF900210D20FCF7BBF930219D
:104700000E20FCF7B7F900215020FCF7B3F9EF2198
:104710005120FCF7AFF900215220FCF7ABF940F231
:104720003F115320FCF7A6F929466020FCF7A2F9B7
:1047300001216120FCF79EF900216A20FCF79AF91B
:1047400011219020FCF796F94FF4C0619220FCF7FC
:1047500091F940F202419320FCF78CF90221942058
:10476000FCF788F9142006F06BF901210720FCF70B
:1047700081F9142006F064F961210720FCF77AF929
:1047800040F273110720FCF775F900212020FCF797
:1047900071F900212120FCF76DF9222100207AE136
:1047A00000210846FCF766F900210846FCF762F98B
:1047B000142006F045F900210846FCF75BF90021BA
:1047C0000846FCF757F900210846FCF753F9002189
:1047D0000846FCF74FF90121A420FCF74BF91420FF
:1047E00006F02EF941466020FCF744F940F6060138
:1047F0000820FCF73FF940F2037529463020FCF70A
:1048000039F901213120FCF735F904213220FCF778
:1048100031F94FF481713320FCF72CF93146342003
:10482000FCF728F940F203113520FCF723F91F218A
:104830003620FCF71FF929463720FCF71BF9012128
:104840003820FCF717F904213920FCF713F915215A
:104850009020FCF70FF94FF482611020FCF70AF961
:1048600040F247211120FCF705F94FF4DE711220C8
:10487000FCF700F94FF460611320FCF7FBF8782097
:1048800006F0DEF821460120FCF7F4F84FF4007141
:104890000220FCF7EFF841F230010320FCF7EAF8C0
:1048A00008210A20FCF7E6F800210C20FCF7E2F8CA
:1048B00020210E20FCF7DEF800210F20FCF7DAF8AB
:1048C00000212020FCF7D6F800212120FCF7D2F8A7
:1048D0003D212A20FCF7CEF8142006F0B1F82D2156
:1048E0002920FCF7C7F800215020FCF7C3F84DF24F
:1048F000EF015120FCF7BEF800215220FCF7BAF876
:1049000040F23F115320FCF7B5F800216120FCF77D
:10491000B1F800216A20FCF7ADF831469220FCF78F
:10492000A9F805219320FCF7A5F82146FFF7B2BBB3
:1049300001210020FCF79EF80A2006F081F841F2E0
:1049400028611020FCF796F80E211220FCF792F84F
:1049500040F639211320FCF78DF80A2006F070F894
:1049600040211120FCF786F850211520FCF782F831
:104970000A2006F065F81E211220FCF77BF80A20B9
:1049800006F05EF84FF4B1511020FCF773F842F6D0
:1049900039211320FCF76EF80A2006F051F8214661
:1049A0000120FCF767F831460220FCF763F841F27A
:1049B00038010320FCF75EF859460820FCF75AF846
:1049C00008210A20FCF756F800213020FCF752F8A5
:1049D00040F202413120FCF74DF84FF48371322050
:1049E000FCF748F840F203513320FCF743F84FF44A
:1049F00082713420FCF73EF840F201313520FCF79B
:104A000039F829463620FCF735F840F205313720D1
:104A1000FCF730F84FF402713820FCF72BF840F621
:104A20000B713920FCF726F802214120FCF722F80F
:104A300041466020FCF71EF80121612000E0CFE034
:104A4000FCF718F84FF404719020FCF713F84FF4BA
:104A500085719220FCF70EF804219320FCF70AF8E8
:104A60002146A020FCF706F801210720FCF702F8F8
:104A700021210720FBF7FEFF23210720FBF7FAFF88
:104A800033210720FBF7F6FF40F233110720FBF735
:104A9000F1FF0021A020FBF7EDFF81E5302115207B
:104AA000FBF7E8FF10219A20FBF7E4FF20211120FB
:104AB000FBF7E0FF43F228411020FBF7DBFF022168
:104AC0001220FBF7D7FF41F238011320FBF7D2FF8A
:104AD000282005F0B5FF12210846FBF7CBFF282060
:104AE00005F0AEFF43F220411020FBF7C3FF43F275
:104AF00038011320FBF7BEFF462005F0A1FF00217F
:104B00003020FBF7B7FF40F202413120FBF7B2FF44
:104B100040F207313220FBF7ADFF4FF441713320F3
:104B2000FBF7A8FF04213420FBF7A4FF40F201416A
:104B30003520FBF79FFF29463620FBF79BFF40F20D
:104B400005313720FBF796FF4FF4C2652946382020
:104B5000FBF790FF29463920FBF78CFF2146012007
:104B6000FBF788FF31460220FBF784FF41F230015A
:104B70000320FBF77FFF40F608010820FBF77AFFD0
:104B800008210A20FBF776FF41466020FBF772FF01
:104B900001216120FBF76EFF4FF49F719020FBF71E
:104BA00069FF21469220FBF765FF21469320FBF722
:104BB00061FF4FF44051A020FBF75CFF1021A320C0
:104BC000FBF758FF01210720FBF754FF21210720A5
:104BD000FBF750FF23210720FBF74CFF3321072071
:104BE000FBF748FF40F23311A0E62DE9F843FE4CF5
:104BF0001E468046A388089FA3F5D040043802D102
:104C0000A079012807D0A2EB0800401C84B20D4611
:104C10004FF0D8492AE025880846A91AA5EB0803D1
:104C20000025A57132462A2565812B26491E5B1E6B
:104C3000A68189B29BB20097FFF7D7FF0120A07130
:104C40006681A581BDE8F88329464046FBF741FF10
:104C5000FBF726FF0020494604E000BF401CA1F8F6
:104C6000807080B2A042F9D36D1CADB2B542EBD9D1
:104C7000E8E72DE9F0478246A2EB0A00401C0E4609
:104C800085B2981B401C87B200244FF0D849DDF84C
:104C9000208015E0301981B25046FBF71AFFFBF770
:104CA000FFFE0020494607E004FB0503401C38F8DE
:104CB0001320A1F8802080B2A842F5D3641CA4B2CE
:104CC000BC42E7D3BDE8F0872DE9FE4F161ACDE9C7
:104CD00000104FF000085D1A47464FF0FF30002EDD
:104CE00002DD4FF0010102E003D14FF000018B46DD
:104CF00002E08346C6F10006002D02DD4FF0010000
:104D000002E003D14FF00000824602E08246C5F186
:104D10000005AE4201DD344600E02C46601C4FF039
:104D20000009029018E0009881B2019880B2FCF767
:104D30004BF9B0442F44A04504DD0198A8EB0408CA
:104D400058440190A74203DD00983F1B5044009057
:104D500009F101001FFA80F902998945E3DDBDE8F8
:104D6000FE8FF0B51C4615460E4607460B46FFF76C
:104D7000ABFF3A46234631461046FFF7A5FF2346D0
:104D80002A4619463846FFF79FFF2A4623463146F2
:104D9000BDE8F040104697E72DE9FC4F804600251E
:104DA000144603200F46A0EB440649E0381B81B2AD
:104DB00008EB050A01901FFA8AF0FCF705F9781B49
:104DC00081B208EB040900901FFA89F0FCF7FCF8A7
:104DD00007EB050B1FFA8BF11FFA89F0FCF7F4F8CB
:104DE00007EB04091FFA89F11FFA8AF0FCF7ECF8C7
:104DF000A8EB050A1FFA89F11FFA8AF0FCF7E4F81C
:104E0000A8EB04091FFA8BF11FFA89F0FCF7DCF814
:104E1000019881B21FFA8AF0FCF7D6F8009881B2A7
:104E20001FFA89F0FCF7D0F86D1C002E03DA06EBB0
:104E30008506B61D04E0281B06EB8006641E0A36B4
:104E4000A542B3DDBDE8FC8F2DE9FF4F1D460C46A2
:104E50008A46580700D0012000EBD500690810FBF6
:104E600001F0203A00F0FF09D0B20026DFF878B157
:104E7000029044E00C2D11D0102D14D0182D40D1EB
:104E800002985A4900EBC00001EB80004FF0000887
:104E9000875D38060CD5564802880DE002985549C2
:104EA00000EB4000F0E75449029801EB0010EDE7F9
:104EB0000D9828B94E48428821460098FCF790F892
:104EC0007806070E641CBBF80200A4B2A04218D9F1
:104ED000A4EB0A00A84209D100985446401C80B2B5
:104EE0000090BBF8001081420BD906E008F10100E8
:104EF00000F0FF08B8F1080FCBD3761CF6B24E4590
:104F0000B8D3BDE8FF8F0246012000E05043491EA0
:104F1000C9B2FBD270472DE9FF4F81B00026DDF802
:104F200038A01D46934681463446B0464FEA5A079C
:104F300027E0281B401EC1B20A20FFF7E4FFBBFB9D
:104F4000F0F00A21B0FBF1F201FB120026B9691E54
:104F50008C4201DA48B101263030C2B207FB04901E
:104F600080B25346CDF8008006E007FB049080B283
:104F700053462022CDF800800299FFF765FF641C9C
:104F8000E4B2AC42D5D305B0BDE8F08F2DE9FF4FB8
:104F900081B04FF00008DDE90EBA1E468146444656
:104FA0000AF001054FEA5B0736E0301B401EC1B234
:104FB0000A20FFF7A8FF0399B1FBF0F00A21B0FB2C
:104FC000F1F201FB1200B8F1000F05D1711E8C4205
:104FD00002DA98B14FF001083030C2B207FB0490FA
:104FE00080B25B46009512E0581A0020B4510208C6
:104FF0001600002050470208C44B02085FEA0A600E
:1050000007FB049080B25B46009508D530220299D8
:10501000FFF71AFF641CE4B2B442C6D3B3E7202200
:10502000F5E72DE9F84F044600F0FF0910190D4689
:10503000DDE90AB61FFA80F8581987B24FF0000A66
:1050400012E0444503D305EB0B004C4685B2BD424C
:105050000FD25B4629462046CDF800A0FFF7F4FEAC
:1050600004EB5B0084B2761C3278A2F120005E284B
:10507000E7D9BDE8F88F000010B5B0B001214FF0BE
:10508000606003F05EF904F00BF904F020FD00BF4E
:1050900004F023FD0128FBD0684604F00DF901203F
:1050A000009000204FF40071CDE90A100904079028
:1050B0001190CDE920010E90149013900A111590D3
:1050C0002590269023920420CDE9280180032A9080
:1050D00080012B9040122C9040002E9000216846B9
:1050E00004F07CF9C4B2012C03D10121944804F0EE
:1050F00006FD30B0204610BDFEB501214D2003F065
:1051000020F90121880303F044F9012003F017FA84
:105110008620032500908DF8055002208DF80400AC
:105120000024884E8DF806408DF8074069463046C9
:1051300002F0EEFE0B220121304602F072FF0B223C
:105140000221304602F06DFF0B220721304602F0AB
:1051500068FF32207C4E00906946304602F0D8FE4F
:105160000B220121304602F05CFF0B220421304665
:1051700002F057FF0B220521304602F052FF4FF498
:10518000D040724E00906946304602F0C1FE0B22BC
:105190001146304602F045FF0B220D21304602F049
:1051A00040FF0B220E21304602F03BFF8DF80550E8
:1051B000012508208DF8045000908DF806408DF8E8
:1051C00007406946624802F0A3FE624EC6F88C4270
:1051D000322006F5237605F033FC35603D208DF84E
:1051E00008008DF809408DF80A408DF80B5002A890
:1051F00002F0CFFDFFF740FF08B10020FEBD012007
:10520000FEBD10B51F21002004F0C0F8C0F38200DD
:1052100010BD10B5504C01E005F0CAFC206804F048
:105220003CFC0028F8D1402004F07AFCBDE8104096
:105230004FF4803004F074BC30B5474C00231A465C
:1052400021680D68002D0BDA444913464C69240689
:1052500002D580244C618B6002604260826030BD68
:105260000D682D040AD40D68ED0507D50D68AD0550
:1052700004D50A68C2F30D438A681B1FCD682560F8
:105280000360C0E9012130BD354A11680B68002B6D
:1052900001DA00207047C0F30C004860086840F055
:1052A00040500860086840F0004008602B4843699F
:1052B0005B0703D50423436100234360C868106083
:1052C00001207047264800688068704710B5254C5B
:1052D0000020216815F015F80020616815F011F81C
:1052E0000020A16815F00DF8E168BDE8104000202D
:1052F00015F007B870B5A021002015F00BF8194C77
:10530000A0212060002015F005F841F6C45560602A
:105310002946002014F0FEFFA0602946002014F06A
:10532000F9FFE060216831B1616821B1A16811B174
:1053300008B1002070BDFFF7C9FF012070BD00005B
:105340004000010000000240000802400018024036
:10535000000C0240008041425400002000900240B6
:10536000500000201C0000202DE9F04198B00121E0
:10537000782002F0E6FF4FF63370169002208DF889
:105380005C0003208DF85D0000248DF85E40012054
:10539000DFF868828DF85F0016A9404602F0B8FD7C
:1053A0004FF68370964D169016A9284602F0B0FD70
:1053B0004FF23F00934E169016A9304602F0A8FD1A
:1053C00040F23F40904F169016A9384602F0A0FDDB
:1053D0000C220021404602F024FE0C22012140460E
:1053E00002F01FFE0C220421404602F01AFE0C229D
:1053F0000521404602F015FE0C220821404602F02D
:1054000010FE0C220921404602F00BFE0C220A215C
:10541000404602F006FE0C220B21404602F001FE3F
:105420000C221146404602F0FCFD0C220D214046A4
:1054300002F0F7FD0C220E21404602F0F2FD0C2294
:105440000F21404602F0EDFD0C220021284602F01B
:10545000E8FD0C220121284602F0E3FD0C22072181
:10546000284602F0DEFD0C220821284602F0D9FD74
:105470000C220921284602F0D4FD0C220A212846DC
:1054800002F0CFFD0C220B21284602F0CAFD0C22AF
:105490001146284602F0C5FD0C220D21284602F0D7
:1054A000C0FD0C220E21284602F0BBFD0C220F216C
:1054B000284602F0B6FD0C220021304602F0B1FD74
:1054C0000C220121304602F0ACFD0C2202213046B4
:1054D00002F0A7FD0C220321304602F0A2FD0C22AF
:1054E0000421304602F09DFD0C220521304602F0D9
:1054F00098FD0C221146304602F093FD0C220D213E
:10550000304602F08EFD0C220E21304602F089FD5D
:105510000C220F21304602F084FD0C220021384677
:1055200002F07FFD0C220121384602F07AFD0C22A8
:105530000221384602F075FD0C220321384602F0A4
:1055400070FD0C220421384602F06BFD0C2205216F
:10555000384602F066FD0C220A21384602F061FD51
:105560000920CDE910400F94149404201594CDE93E
:10557000000412941020CDE9024013940494000218
:10558000CDE908400FA80794CDE90C400594069496
:105590000E900A940B94684604F0F2FB012104205B
:1055A00004F067FC18B0BDE8F08110B5002A07D000
:1055B0004FF0D04310F8014B5C54491C521EF7D1F8
:1055C00010BD002A08D000BF4FF0D0435B5C491CDF
:1055D00000F8013B521EF7D1704703B50146012286
:1055E00001A8FFF7E2FF0CBD08B50146012268469D
:1055F000FFF7E7FF9DF8000008BD0000000C024027
:105600000010024000140240001802407F4810B50C
:10561000016821F440210160016841F480210160AA
:105620007B4C0020C4F8A40240F2EE2004F529745B
:1056300005F0E7F901202060BDE810400F2005F0DB
:10564000E0B970B571480024016821F4402101607F
:10565000016801606E4D04E0641CE4B2012005F0B5
:10566000D0F9D5F8240210B1C82CF5D30DE0C82C20
:105670000BD2002404E0641CE4B2012005F0C1F95F
:10568000D5F8240218B1F02C04D3012070BDF02C01
:10569000F1D3FAE7002070BD70B55C4C206820F4AF
:1056A00040202060206840F480202060584D002079
:1056B000C5F8A402022005F5297505F0A2F901201C
:1056C0002860206820F440202060206820600C20A2
:1056D00005F097F955F8800C08B1012400E000248A
:1056E000322005F08EF9204670BD70B500250124EA
:1056F000FFF7D2FFC001641C40EA5500E4B2C5B216
:10570000082CF5D9284670BD2DE9F04106463F48E2
:10571000016821F440210160016841F480210160A9
:1057200001253B4C0027A84616F0010F4FEA56060C
:10573000C4F8A47206D0022005F063F9C4F8A4826C
:105740003C2005E03C2005F05CF9C4F8A48202206E
:1057500005F057F96D1CEDB2082DE5D9BDE8F081D3
:1057600010B5FFF753FFFFF76CFFCC20FFF7CCFF1E
:10577000BDE810404420C7E71CB50121402002F0DD
:10578000E0FD4FF40070009001208DF8040000212E
:105790008DF8061002218DF805108DF80700694676
:1057A0001A4802F0B5FBFFF731FFFFF74AFF1CBDB7
:1057B00070B5FFF7D5FFFFF729FFFFF742FFCC20B9
:1057C000FFF7A2FFBE20FFF79FFFFFF78EFF044603
:1057D000FFF78BFF072805D9C043E143C0B2CCB225
:1057E000002500E0012504EB002000B21EF02DFC96
:1057F0009FED081B53EC112B1EF08EFC1EF0C8FB16
:1058000000B2002D01D1404200B270BD001802402C
:1058100000004342000000000000E43F10B50146D4
:105820008020002401E04008641C0842FBD121468E
:1058300062A01BF0ADFB204610BD30B5644C0023C8
:1058400041F66F22991801EBD171491034F82150BB
:10585000854203D104EB8100408830BD02D9A1F11B
:10586000010201E001F101039342EBDD002030BDB4
:105870002DE9FC47064691460F4656A01BF088FBD3
:1058800059A01BF085FB002404E0315D58A01BF0FB
:105890007FFB641CBC42F8DB57A01BF079FB4FF088
:1058A000000845464446ADF80080ADF804806AE043
:1058B000705DFFF7B3FF07285DD2DFE800F0045CFE
:1058C0000B1750545800715D09F804104FF001088F
:1058D0006D1C5FE0715D701909F80410417809EBE7
:1058E00004004FF002084170AD1C4BE0711948787C
:1058F000C0F38302705D42EA001209EB04008246A5
:1059000042704A78897802F0030262F39F1109F825
:1059100004100188ADF8001038A01BF039FBBDF869
:105920000000FFF78AFFADF80400804601463AA068
:105930001BF02EFBB8F1000F0DD04FEA182141EA01
:10594000082081B2ADF8041039A01BF021FBBDF88E
:105950000410AAF800104FF00308ED1C12E04FF0FD
:1059600004082D1D0EE04FF005086D1D0AE04FF0F4
:105970000608AD1D06E038A01BF00AFB4544B8F14F
:10598000010F07D0A41CBD4292DB17A01BF000FB47
:10599000002507E0641CF6E719F8051014A01BF0B9
:1059A000F7FA6D1CA542F7DB13A01BF0F1FA49468C
:1059B000BDE8FC472FA01BF0EBBA0000746865201F
:1059C0006E756D2069733A2025640D0A0000000091
:1059D000105F0208757466382D3E756E69636F64DA
:1059E000653A200D0A000000757466383A205B00A5
:1059F00025303278200000005D0D0A00756E696365
:105A00006F6465206B65792069733A2030782530A2
:105A100034580D0A00000000676232333132206BC7
:105A200065792069733A203078253034580D0A00A2
:105A30006166746572206368616E67696E672C20A9
:105A4000676232333132206B65792069733A2030D6
:105A500078253034580D0A00746865206C656E2016
:105A60006973206D6F7265207468616E20360D0A4F
:105A700000000000D7AABBBBBAF3A3BA25730D0A76
:105A80000000000030B403460C46500700D001204F
:105A900000EBD20010FB02F0C1B218785B788128CD
:105AA00009D3402B07D3FF2B05D0FF2803D07F2B32
:105AB0000CD2403B0BE00020024603E0401C04F8FF
:105AC000012BC0B28842F9D330BC7047413B8138CA
:105AD000C0B2C0EB4015DBB205EB801003EB400019
